:030000000208F6FD
:0C08F600787FE4F6D8FD75812202093DF0
:100A93003801060C8254656D7065726174757265F8
:020AA3003A0017
:080AB900021F000002210000F1
:1009820078097C007D007BFF7A0A79937E007F05DF
:100992001208D0780E7C007D007BFF7A0A79987E5F
:1009A200007F0D1208D07590FFE4F580F508C3E5CD
:1009B20008940574809480501174092508F8E6FFA4
:1009C200120AA5120A6F050880E4E4F508C3E508D7
:1009D200940C748094805011740E2508F8E6FF126E
:1009E2000AAF120A6F050880E4D2B2D2B0D2B1C205
:1009F200B1120A6FD2B120B2FDC2B085901BAF1BFB
:070A0200120A09D2B080E8DE
:0A0AA5008F80C2A7120A6BC2A522BF
:0A0AAF008F80D2A7120A6BC2A522A5
:020A09008F1C40
:100A0B00E5224521700A051C0522E522700205210D
:100A1B007FC6120AA5E51C75F00A842430FFE51C7D
:100A2B0075F00A8485F01D7430251DF51D751EDFCC
:100A3B00E51C751F00F520D3E5209427E51F648086
:100A4B0094804006D2A0C2A18004C2A0C2A1120A07
:100A5B00AFAF1D120AAFAF1E120AAF7F43020AAF30
:080A6B00C2A6D2A57F017E00A6
:100A7300E4FDFCC3ED9FEC9E5015E4FBFA0BBB00B9
:0F0A8300010ABA05F8BB5FF50DBD00010C80E458
:010A92002241
:10090200020982E493A3F8E493A34003F68001F280
:1009120008DFF48029E493A3F85407240CC8C333F6
:10092200C4540F4420C8834004F456800146F6DFC5
:10093200E4800B0102040810204080900AB9E47E92
:10094200019360BCA3FF543F30E509541FFEE493BA
:10095200A360010ECF54C025E060A840B8E493A381
:10096200FAE493A3F8E493A3C8C582C8CAC583CAAC
:10097200F0A3C8C582C8CAC583CADFE9DEE780BE64
:010AC1000034
:10080000E709F608DFFA8046E709F208DFFA803EDA
:1008100088828C83E709F0A3DFFA8032E309F608C7
:10082000DFFA8078E309F208DFFA807088828C832F
:10083000E309F0A3DFFA806489828A83E0A3F608E3
:10084000DFFA805889828A83E0A3F208DFFA804CBD
:1008500080D280FA80C680D4806980F28033801094
:1008600080A680EA809A80A880DA80E280CA8033FD
:1008700089828A83ECFAE493A3C8C582C8CCC58375
:10088000CCF0A3C8C582C8CCC583CCDFE9DEE78045
:100890000D89828A83E493A3F608DFF9ECFAA9F0C4
:1008A000EDFB2289828A83ECFAE0A3C8C582C8CC1A
:1008B000C583CCF0A3C8C582C8CCC583CCDFEADE33
:1008C000E880DB89828A83E493A3F208DFF980CC95
:1008D00088F0EF60010E4E60C388F0ED2402B4048E
:1008E0000050B9F582EB2402B4040050AF23234535
:0608F00082239008507302
:00000001FF
