:030000000209846E
:0C098400787FE4F6D8FD7581200209CBD5
:100A85003801060C8254656D706572617475726506
:020A95003A0025
:040AAB00021F000026
:1008F60078097C007D007BFF7A0A79857E007F057A
:100906001208D0780E7C007D007BFF7A0A798A7EF9
:10091600007F0D1208D07590FFE4F580F508C3E559
:1009260008940574809480501174092508F8E6FF30
:10093600120A97120A61050880E4E4F508C3E5087F
:10094600940C748094805011740E2508F8E6FF12FA
:100956000AA1120A61050880E4D2B2D2B0D2B1C2AD
:10096600B1120A61D2B120B2FDC2B085901BAF1B95
:0E097600120A107FE87E03120A65D2B080E1FB
:0A0A97008F80C2A7120A5DC2A522DB
:0A0AA1008F80D2A7120A5DC2A522C1
:020A10008F1C39
:100A12007FC6120A97E51C75F00A842430FFE51C94
:100A220075F00A8485F01D7430251DF51D751EDFD5
:100A3200E51C751F00F520E5206427451F7006D2CE
:100A4200A0C2A18004C2A0C2A1120AA1AF1D120AB3
:0B0A5200A1AF1E120AA17F43020AA1FF
:080A5D00C2A6D2A57F017E00B4
:100A6500E4FDFCC3ED9FEC9E5015E4FBFA0BBB00C7
:0F0A7500010ABA05F8BB5FF50DBD00010C80E466
:010A8400224F
:100990000208F6E493A3F8E493A34003F68001F27F
:1009A00008DFF48029E493A3F85407240CC8C33368
:1009B000C4540F4420C8834004F456800146F6DF37
:1009C000E4800B0102040810204080900AABE47E12
:1009D000019360BCA3FF543F30E509541FFEE4932C
:1009E000A360010ECF54C025E060A840B8E493A3F3
:1009F000FAE493A3F8E493A3C8C582C8CAC583CA1E
:100A0000F0A3C8C582C8CAC583CADFE9DEE780BED5
:010AAF000046
:10080000E709F608DFFA8046E709F208DFFA803EDA
:1008100088828C83E709F0A3DFFA8032E309F608C7
:10082000DFFA8078E309F208DFFA807088828C832F
:10083000E309F0A3DFFA806489828A83E0A3F608E3
:10084000DFFA805889828A83E0A3F208DFFA804CBD
:1008500080D280FA80C680D4806980F28033801094
:1008600080A680EA809A80A880DA80E280CA8033FD
:1008700089828A83ECFAE493A3C8C582C8CCC58375
:10088000CCF0A3C8C582C8CCC583CCDFE9DEE78045
:100890000D89828A83E493A3F608DFF9ECFAA9F0C4
:1008A000EDFB2289828A83ECFAE0A3C8C582C8CC1A
:1008B000C583CCF0A3C8C582C8CCC583CCDFEADE33
:1008C000E880DB89828A83E493A3F208DFF980CC95
:1008D00088F0EF60010E4E60C388F0ED2402B4048E
:1008E0000050B9F582EB2402B4040050AF23234535
:0608F00082239008507302
:00000001FF
